:100000000C942A000C9434000C9434000C943400AA
:100010000C9434000C9434000C9434000C94340090
:100020000C9434000C9434000C9434000C94340080
:100030000C9434000C9434000C9434000C94340070
:100040000C9434000C9434000C9434000C94340060
:100050000C94340011241FBECFE5D4E0DEBFCDBF29
:100060000E9436000C944C000C9400008D9A8FB5C1
:1000700080648FBD8EB58A608EBD8FEF8ABB8BB3D7
:1000800080958BBB2FEF89E698E12150804090400E
:0C009000E1F700C00000F3CFF894FFCFB0
:00000001FF
