:100000000C942A000C9434000C9434000C943400AA
:100010000C9434000C9434000C9434000C94340090
:100020000C9434000C9434000C9434000C94340080
:100030000C9434000C9434000C944B000C94340059
:100040000C9434000C9434000C9434000C94340060
:100050000C94340011241FBECFE5D4E0DEBFCDBF29
:100060000E943E000C945E000C94000085E080BD70
:1000700019B888E18AB98EE880BD08951ABA0E943D
:1000800036008FEF84BB81BB339A3E9A329A379AFF
:100090007894369AFFCF1F920F920FB60F921124C9
:1000A0008F9384B185B184B185BB85B182BB369A0B
:1000B0008F910F900FBE0F901F901895F894FFCF5F
:00000001FF
