:100000000C942A000C9434000C9434000C943400AA
:100010000C9434000C9434000C9434000C94340090
:100020000C9434000C9434000C9434000C94340080
:100030000C9434000C9434000C9453000C94340051
:100040000C9434000C9434000C9434000C94340060
:100050000C94340011241FBECFE5D4E0DEBFCDBF29
:100060000E944A000C9489000C94000085E080BD39
:1000700019B888E18AB98EE880BD0895FC019081A5
:10008000992339F031965D9BFECF9CB991919111E6
:10009000FACF08950E943600339A3E9A329A379AE0
:1000A0007894369AFFCF1F920F920FB60F921124B9
:1000B0002F933F934F935F936F937F938F939F9370
:1000C000AF93BF93EF93FF93CF93DF9300D01F9233
:1000D000CDB7DEB784B1898385B18A83CE0101961D
:1000E0000E943E00369A0F900F900F90DF91CF91B3
:1000F000FF91EF91BF91AF919F918F917F916F9100
:100100005F914F913F912F910F900FBE0F901F90D5
:060110001895F894FFCFE2
:00000001FF
